{
  "address": "0xbE8B0279153eFDBEafa19330B575f83f16C64Ea9",
  "abi": [
    {
      "inputs": [],
      "stateMutability": "nonpayable",
      "type": "constructor"
    },
    {
      "inputs": [],
      "name": "counterBase",
      "outputs": [
        {
          "internalType": "contract CounterV1",
          "name": "",
          "type": "address"
        }
      ],
      "stateMutability": "view",
      "type": "function"
    },
    {
      "inputs": [],
      "name": "getImplementationAddress",
      "outputs": [
        {
          "internalType": "address",
          "name": "",
          "type": "address"
        }
      ],
      "stateMutability": "view",
      "type": "function"
    },
    {
      "inputs": [],
      "name": "multiplyHelperBase",
      "outputs": [
        {
          "internalType": "contract MultiplyHelper",
          "name": "",
          "type": "address"
        }
      ],
      "stateMutability": "view",
      "type": "function"
    },
    {
      "inputs": [
        {
          "internalType": "address",
          "name": "_dao",
          "type": "address"
        },
        {
          "internalType": "bytes",
          "name": "_data",
          "type": "bytes"
        }
      ],
      "name": "prepareInstallation",
      "outputs": [
        {
          "internalType": "address",
          "name": "plugin",
          "type": "address"
        },
        {
          "internalType": "address[]",
          "name": "helpers",
          "type": "address[]"
        },
        {
          "components": [
            {
              "internalType": "enum PermissionLib.Operation",
              "name": "operation",
              "type": "uint8"
            },
            {
              "internalType": "address",
              "name": "where",
              "type": "address"
            },
            {
              "internalType": "address",
              "name": "who",
              "type": "address"
            },
            {
              "internalType": "address",
              "name": "oracle",
              "type": "address"
            },
            {
              "internalType": "bytes32",
              "name": "permissionId",
              "type": "bytes32"
            }
          ],
          "internalType": "struct PermissionLib.ItemMultiTarget[]",
          "name": "permissions",
          "type": "tuple[]"
        }
      ],
      "stateMutability": "nonpayable",
      "type": "function"
    },
    {
      "inputs": [],
      "name": "prepareInstallationDataABI",
      "outputs": [
        {
          "internalType": "string",
          "name": "",
          "type": "string"
        }
      ],
      "stateMutability": "view",
      "type": "function"
    },
    {
      "inputs": [
        {
          "internalType": "address",
          "name": "_dao",
          "type": "address"
        },
        {
          "internalType": "address",
          "name": "_plugin",
          "type": "address"
        },
        {
          "internalType": "address[]",
          "name": "_activeHelpers",
          "type": "address[]"
        },
        {
          "internalType": "bytes",
          "name": "",
          "type": "bytes"
        }
      ],
      "name": "prepareUninstallation",
      "outputs": [
        {
          "components": [
            {
              "internalType": "enum PermissionLib.Operation",
              "name": "operation",
              "type": "uint8"
            },
            {
              "internalType": "address",
              "name": "where",
              "type": "address"
            },
            {
              "internalType": "address",
              "name": "who",
              "type": "address"
            },
            {
              "internalType": "address",
              "name": "oracle",
              "type": "address"
            },
            {
              "internalType": "bytes32",
              "name": "permissionId",
              "type": "bytes32"
            }
          ],
          "internalType": "struct PermissionLib.ItemMultiTarget[]",
          "name": "permissions",
          "type": "tuple[]"
        }
      ],
      "stateMutability": "nonpayable",
      "type": "function"
    },
    {
      "inputs": [],
      "name": "prepareUninstallationDataABI",
      "outputs": [
        {
          "internalType": "string",
          "name": "",
          "type": "string"
        }
      ],
      "stateMutability": "view",
      "type": "function"
    },
    {
      "inputs": [
        {
          "internalType": "address",
          "name": "_dao",
          "type": "address"
        },
        {
          "internalType": "address",
          "name": "_plugin",
          "type": "address"
        },
        {
          "internalType": "address[]",
          "name": "_currentHelpers",
          "type": "address[]"
        },
        {
          "internalType": "uint16[3]",
          "name": "_oldVersion",
          "type": "uint16[3]"
        },
        {
          "internalType": "bytes",
          "name": "_data",
          "type": "bytes"
        }
      ],
      "name": "prepareUpdate",
      "outputs": [
        {
          "internalType": "address[]",
          "name": "updatedHelpers",
          "type": "address[]"
        },
        {
          "internalType": "bytes",
          "name": "initData",
          "type": "bytes"
        },
        {
          "components": [
            {
              "internalType": "enum PermissionLib.Operation",
              "name": "operation",
              "type": "uint8"
            },
            {
              "internalType": "address",
              "name": "where",
              "type": "address"
            },
            {
              "internalType": "address",
              "name": "who",
              "type": "address"
            },
            {
              "internalType": "address",
              "name": "oracle",
              "type": "address"
            },
            {
              "internalType": "bytes32",
              "name": "permissionId",
              "type": "bytes32"
            }
          ],
          "internalType": "struct PermissionLib.ItemMultiTarget[]",
          "name": "permissions",
          "type": "tuple[]"
        }
      ],
      "stateMutability": "nonpayable",
      "type": "function"
    },
    {
      "inputs": [],
      "name": "prepareUpdateDataABI",
      "outputs": [
        {
          "internalType": "string",
          "name": "",
          "type": "string"
        }
      ],
      "stateMutability": "view",
      "type": "function"
    },
    {
      "inputs": [
        {
          "internalType": "bytes4",
          "name": "interfaceId",
          "type": "bytes4"
        }
      ],
      "name": "supportsInterface",
      "outputs": [
        {
          "internalType": "bool",
          "name": "",
          "type": "bool"
        }
      ],
      "stateMutability": "view",
      "type": "function"
    }
  ],
  "transactionHash": "0x4a20c514c07229876b73ce529900fdf1006eb992851d74e9c5409b5ac08f52ce",
  "args": [],
  "numDeployments": 1,
  "solcInputHash": "d1104b0ac8d892b7b10bda9ecaf25519",
  "bytecode": "0x608060405234801561001057600080fd5b5060405161001d906100a8565b604051809103906000f080158015610039573d6000803e3d6000fd5b50600080546001600160a01b0319166001600160a01b0392909216919091179055604051610066906100b5565b604051809103906000f080158015610082573d6000803e3d6000fd5b50600180546001600160a01b0319166001600160a01b03929092169190911790556100c2565b611091806119cd83390190565b61145880612a5e83390190565b6118fc806100d16000396000f3fe60806040523480156200001157600080fd5b5060043610620000cd5760003560e01c806351c68301116200007f578063a5d1805a1162000062578063a5d1805a14620001c3578063eee774ca14620001cb578063f10832f114620001df57600080fd5b806351c68301146200017c5780637004cac1146200019157600080fd5b80630cbcae7011620000b45780630cbcae70146200012b578063309227b8146200013d5780633bb1847f146200015657600080fd5b806301ffc9a714620000d25780630af30a7f14620000fe575b600080fd5b620000e9620000e336600462000aa2565b62000207565b60405190151581526020015b60405180910390f35b60015462000112906001600160a01b031681565b6040516001600160a01b039091168152602001620000f5565b6001546001600160a01b031662000112565b62000147620002a1565b604051620000f5919062000b36565b6200016d6200016736600462000bb0565b620002c2565b604051620000f5919062000d19565b60408051602081019091526000815262000147565b620001b2620001a236600462000e01565b6060806060955095509592505050565b604051620000f59392919062000f6c565b606062000147565b60005462000112906001600160a01b031681565b620001f6620001f036600462000fab565b620005d2565b604051620000f59392919062001001565b60007fffffffff0000000000000000000000000000000000000000000000000000000082167f7284f6dc0000000000000000000000000000000000000000000000000000000014806200029b57507f01ffc9a7000000000000000000000000000000000000000000000000000000007fffffffff000000000000000000000000000000000000000000000000000000008316145b92915050565b6060604051806060016040528060228152602001620018a560229139905090565b606083620002d2576002620002d5565b60035b60ff1667ffffffffffffffff811115620002f357620002f362000d2e565b6040519080825280602002602001820160405280156200034e57816020015b6040805160a081018252600080825260208083018290529282018190526060820181905260808201528252600019909201910181620003125790505b506040805160a081019091529091508060018152602001886001600160a01b03168152602001876001600160a01b0316815260200160006001600160a01b031681526020017fbf04b4486c9663d805744005c3da000eda93de6e3308a4a7a812eb565327b78d81525081600081518110620003cd57620003cd62001039565b60209081029190910101526040805160a081019091528060018152602001876001600160a01b03168152602001886001600160a01b0316815260200160006001600160a01b03168152602001600160009054906101000a90046001600160a01b03166001600160a01b031663b73fa1e76040518163ffffffff1660e01b8152600401602060405180830381865afa1580156200046d573d6000803e3d6000fd5b505050506040513d601f19601f820116820180604052508101906200049391906200104f565b81525081600181518110620004ac57620004ac62001039565b60209081029190910101528315620005c8576040805160a08101909152806001815260200186866000818110620004e757620004e762001039565b9050602002016020810190620004fe919062001069565b6001600160a01b03168152602001876001600160a01b0316815260200160006001600160a01b0316815260200160008054906101000a90046001600160a01b03166001600160a01b031663b73fa1e76040518163ffffffff1660e01b8152600401602060405180830381865afa1580156200057d573d6000803e3d6000fd5b505050506040513d601f19601f82011682018060405250810190620005a391906200104f565b81525081600281518110620005bc57620005bc62001039565b60200260200101819052505b9695505050505050565b600060608060008085806020019051810190620005f0919062001089565b9092509050816001600160a01b0381166200065d576000805460408051602081018252928352516001600160a01b0390911691906200062f9062000a94565b6200063c929190620010ba565b604051809103906000f08015801562000659573d6000803e3d6000fd5b5090505b604080516001600160a01b038a81166024830152838116604483015260648083018690528351808403909101815260849092019092526020810180517bffffffffffffffffffffffffffffffffffffffffffffffffffffffff167f1794bb3c0000000000000000000000000000000000000000000000000000000017905290841615620006ec576002620006ef565b60035b60ff1667ffffffffffffffff8111156200070d576200070d62000d2e565b6040519080825280602002602001820160405280156200076857816020015b6040805160a0810182526000808252602080830182905292820181905260608201819052608082015282526000199092019101816200072c5790505b506040805160018082528183019092529196506020808301908036833701905050600154909650620007a4906001600160a01b03168262000a3b565b6040805160a0810190915290975080600081526020018a6001600160a01b03168152602001886001600160a01b0316815260200160006001600160a01b031681526020017fbf04b4486c9663d805744005c3da000eda93de6e3308a4a7a812eb565327b78d8152508560008151811062000822576200082262001039565b60209081029190910101526040805160a081019091528060008152602001886001600160a01b031681526020018a6001600160a01b0316815260200160006001600160a01b03168152602001600160009054906101000a90046001600160a01b03166001600160a01b031663b73fa1e76040518163ffffffff1660e01b8152600401602060405180830381865afa158015620008c2573d6000803e3d6000fd5b505050506040513d601f19601f82011682018060405250810190620008e891906200104f565b8152508560018151811062000901576200090162001039565b60209081029190910101526001600160a01b038416620009f9576040805160a081019091528060008152602001836001600160a01b03168152602001886001600160a01b0316815260200160006001600160a01b0316815260200160008054906101000a90046001600160a01b03166001600160a01b031663b73fa1e76040518163ffffffff1660e01b8152600401602060405180830381865afa158015620009ae573d6000803e3d6000fd5b505050506040513d601f19601f82011682018060405250810190620009d491906200104f565b81525085600281518110620009ed57620009ed62001039565b60200260200101819052505b818660008151811062000a105762000a1062001039565b60200260200101906001600160a01b031690816001600160a01b031681525050505050509250925092565b600062000a49838362000a50565b9392505050565b6000828260405162000a629062000a94565b62000a6f929190620010ba565b604051809103906000f08015801562000a8c573d6000803e3d6000fd5b509392505050565b6107be80620010e783390190565b60006020828403121562000ab557600080fd5b81357fffffffff000000000000000000000000000000000000000000000000000000008116811462000a4957600080fd5b6000815180845260005b8181101562000b0e5760208185018101518683018201520162000af0565b8181111562000b21576000602083870101525b50601f01601f19169290920160200192915050565b60208152600062000a49602083018462000ae6565b6001600160a01b038116811462000b6157600080fd5b50565b60008083601f84011262000b7757600080fd5b50813567ffffffffffffffff81111562000b9057600080fd5b60208301915083602082850101111562000ba957600080fd5b9250929050565b6000806000806000806080878903121562000bca57600080fd5b863562000bd78162000b4b565b9550602087013562000be98162000b4b565b9450604087013567ffffffffffffffff8082111562000c0757600080fd5b818901915089601f83011262000c1c57600080fd5b81358181111562000c2c57600080fd5b8a60208260051b850101111562000c4257600080fd5b60208301965080955050606089013591508082111562000c6157600080fd5b5062000c7089828a0162000b64565b979a9699509497509295939492505050565b60008151808452602080850194508084016000805b8481101562000d0d5782518051600480821062000cc157634e487b7160e01b855260218152602485fd5b508952808501516001600160a01b03908116868b01526040808301518216908b0152606080830151909116908a01526080908101519089015260a0909701969183019160010162000c97565b50959695505050505050565b60208152600062000a49602083018462000c82565b634e487b7160e01b600052604160045260246000fd5b604051601f8201601f1916810167ffffffffffffffff8111828210171562000d705762000d7062000d2e565b604052919050565b80606081018310156200029b57600080fd5b600082601f83011262000d9c57600080fd5b813567ffffffffffffffff81111562000db95762000db962000d2e565b62000dce6020601f19601f8401160162000d44565b81815284602083860101111562000de457600080fd5b816020850160208301376000918101602001919091529392505050565b600080600080600060e0868803121562000e1a57600080fd5b853562000e278162000b4b565b945060208681013562000e3a8162000b4b565b9450604087013567ffffffffffffffff8082111562000e5857600080fd5b818901915089601f83011262000e6d57600080fd5b81358181111562000e825762000e8262000d2e565b8060051b62000e9385820162000d44565b918252838101850191858101908d84111562000eae57600080fd5b948601945b8386101562000edc578535925062000ecb8362000b4b565b828252948601949086019062000eb3565b8099505050505062000ef28a60608b0162000d78565b945060c089013592508083111562000f0957600080fd5b505062000f198882890162000d8a565b9150509295509295909350565b600081518084526020808501945080840160005b8381101562000f615781516001600160a01b03168752958201959082019060010162000f3a565b509495945050505050565b60608152600062000f81606083018662000f26565b828103602084015262000f95818662000ae6565b90508281036040840152620005c8818562000c82565b6000806040838503121562000fbf57600080fd5b823562000fcc8162000b4b565b9150602083013567ffffffffffffffff81111562000fe957600080fd5b62000ff78582860162000d8a565b9150509250929050565b6001600160a01b038416815260606020820152600062001025606083018562000f26565b8281036040840152620005c8818562000c82565b634e487b7160e01b600052603260045260246000fd5b6000602082840312156200106257600080fd5b5051919050565b6000602082840312156200107c57600080fd5b813562000a498162000b4b565b600080604083850312156200109d57600080fd5b8251620010aa8162000b4b565b6020939093015192949293505050565b6001600160a01b0383168152604060208201526000620010de604083018462000ae6565b94935050505056fe60806040526040516107be3803806107be83398101604081905261002291610314565b61002e82826000610035565b5050610431565b61003e8361006b565b60008251118061004b5750805b156100665761006483836100ab60201b6100291760201c565b505b505050565b610074816100d7565b6040516001600160a01b038216907fbc7cd75a20ee27fd9adebab32041f755214dbc6bffa90cc0225b39da2e5c2d3b90600090a250565b60606100d08383604051806060016040528060278152602001610797602791396101a9565b9392505050565b6100ea8161028760201b6100551760201c565b6101515760405162461bcd60e51b815260206004820152602d60248201527f455243313936373a206e657720696d706c656d656e746174696f6e206973206e60448201526c1bdd08184818dbdb9d1c9858dd609a1b60648201526084015b60405180910390fd5b806101887f360894a13ba1a3210667c828492db98dca3e2076cc3735a920a3ca505d382bbc60001b61029660201b6100711760201c565b80546001600160a01b0319166001600160a01b039290921691909117905550565b60606001600160a01b0384163b6102115760405162461bcd60e51b815260206004820152602660248201527f416464726573733a2064656c65676174652063616c6c20746f206e6f6e2d636f6044820152651b9d1c9858dd60d21b6064820152608401610148565b600080856001600160a01b03168560405161022c91906103e2565b600060405180830381855af49150503d8060008114610267576040519150601f19603f3d011682016040523d82523d6000602084013e61026c565b606091505b50909250905061027d828286610299565b9695505050505050565b6001600160a01b03163b151590565b90565b606083156102a85750816100d0565b8251156102b85782518084602001fd5b8160405162461bcd60e51b815260040161014891906103fe565b634e487b7160e01b600052604160045260246000fd5b60005b838110156103035781810151838201526020016102eb565b838111156100645750506000910152565b6000806040838503121561032757600080fd5b82516001600160a01b038116811461033e57600080fd5b60208401519092506001600160401b038082111561035b57600080fd5b818501915085601f83011261036f57600080fd5b815181811115610381576103816102d2565b604051601f8201601f19908116603f011681019083821181831017156103a9576103a96102d2565b816040528281528860208487010111156103c257600080fd5b6103d38360208301602088016102e8565b80955050505050509250929050565b600082516103f48184602087016102e8565b9190910192915050565b602081526000825180602084015261041d8160408501602087016102e8565b601f01601f19169190910160400192915050565b610357806104406000396000f3fe60806040523661001357610011610017565b005b6100115b610027610022610074565b6100b9565b565b606061004e83836040518060600160405280602781526020016102fb602791396100dd565b9392505050565b73ffffffffffffffffffffffffffffffffffffffff163b151590565b90565b60006100b47f360894a13ba1a3210667c828492db98dca3e2076cc3735a920a3ca505d382bbc5473ffffffffffffffffffffffffffffffffffffffff1690565b905090565b3660008037600080366000845af43d6000803e8080156100d8573d6000f35b3d6000fd5b606073ffffffffffffffffffffffffffffffffffffffff84163b610188576040517f08c379a000000000000000000000000000000000000000000000000000000000815260206004820152602660248201527f416464726573733a2064656c65676174652063616c6c20746f206e6f6e2d636f60448201527f6e7472616374000000000000000000000000000000000000000000000000000060648201526084015b60405180910390fd5b6000808573ffffffffffffffffffffffffffffffffffffffff16856040516101b0919061028d565b600060405180830381855af49150503d80600081146101eb576040519150601f19603f3d011682016040523d82523d6000602084013e6101f0565b606091505b509150915061020082828661020a565b9695505050505050565b6060831561021957508161004e565b8251156102295782518084602001fd5b816040517f08c379a000000000000000000000000000000000000000000000000000000000815260040161017f91906102a9565b60005b83811015610278578181015183820152602001610260565b83811115610287576000848401525b50505050565b6000825161029f81846020870161025d565b9190910192915050565b60208152600082518060208401526102c881604085016020870161025d565b601f017fffffffffffffffffffffffffffffffffffffffffffffffffffffffffffffffe016919091016040019291505056fe416464726573733a206c6f772d6c6576656c2064656c65676174652063616c6c206661696c6564a2646970667358221220541b917e30cdb6190a188d89351df658042e2f895a39400f1e3b929696bd0a0064736f6c634300080a0033416464726573733a206c6f772d6c6576656c2064656c65676174652063616c6c206661696c65642861646472657373206d756c7469706c7948656c7065722c2075696e74206e756d29a2646970667358221220f5f2a4f17873d6b47808eff9b97cdafa0d6548f63ea60f6a765329f34a38bc3664736f6c634300080a003360a06040523060805234801561001457600080fd5b5060805161104561004c600039600081816103ad0152818161044801528181610550015281816105e601526106e101526110456000f3fe6080604052600436106100b15760003560e01c80634f1ef28611610069578063985da7261161004e578063985da726146101ac578063b73fa1e7146101ca578063c9c4bfca146101fe57600080fd5b80634f1ef2861461018457806352d1902d1461019757600080fd5b8063165c4a161161009a578063165c4a16146101185780633659cfe61461014657806341de68301461016857600080fd5b806301ffc9a7146100b65780630cbcae70146100eb575b600080fd5b3480156100c257600080fd5b506100d66100d1366004610cf8565b610232565b60405190151581526020015b60405180910390f35b3480156100f757600080fd5b50610100610317565b6040516001600160a01b0390911681526020016100e2565b34801561012457600080fd5b50610138610133366004610d3a565b61034f565b6040519081526020016100e2565b34801561015257600080fd5b50610166610161366004610d78565b6103a2565b005b34801561017457600080fd5b5060006040516100e29190610d93565b610166610192366004610dd1565b610545565b3480156101a357600080fd5b506101386106d4565b3480156101b857600080fd5b5060c9546001600160a01b0316610100565b3480156101d657600080fd5b506101387f293ab483515bb2dc32ac9b2dfb9c39ee4ea5571530c34de9864c3e5fa9ce787d81565b34801561020a57600080fd5b506101387f821b6e3a557148015a918c89e5d092e878a69854a2d1a410635f771bd5a8a3f581565b60007fffffffff0000000000000000000000000000000000000000000000000000000082167f41de68300000000000000000000000000000000000000000000000000000000014806102c557507fffffffff0000000000000000000000000000000000000000000000000000000082167f52d1902d00000000000000000000000000000000000000000000000000000000145b8061031157507f01ffc9a7000000000000000000000000000000000000000000000000000000007fffffffff000000000000000000000000000000000000000000000000000000008316145b92915050565b600061034a7f360894a13ba1a3210667c828492db98dca3e2076cc3735a920a3ca505d382bbc546001600160a01b031690565b905090565b60c9546000907f293ab483515bb2dc32ac9b2dfb9c39ee4ea5571530c34de9864c3e5fa9ce787d90610390906001600160a01b031630335b84600036610799565b61039a8385610e93565b949350505050565b306001600160a01b037f00000000000000000000000000000000000000000000000000000000000000001614156104465760405162461bcd60e51b815260206004820152602c60248201527f46756e6374696f6e206d7573742062652063616c6c6564207468726f7567682060448201527f64656c656761746563616c6c000000000000000000000000000000000000000060648201526084015b60405180910390fd5b7f00000000000000000000000000000000000000000000000000000000000000006001600160a01b03166104a17f360894a13ba1a3210667c828492db98dca3e2076cc3735a920a3ca505d382bbc546001600160a01b031690565b6001600160a01b03161461051d5760405162461bcd60e51b815260206004820152602c60248201527f46756e6374696f6e206d7573742062652063616c6c6564207468726f7567682060448201527f6163746976652070726f78790000000000000000000000000000000000000000606482015260840161043d565b6105268161088e565b60408051600080825260208201909252610542918391906108c7565b50565b306001600160a01b037f00000000000000000000000000000000000000000000000000000000000000001614156105e45760405162461bcd60e51b815260206004820152602c60248201527f46756e6374696f6e206d7573742062652063616c6c6564207468726f7567682060448201527f64656c656761746563616c6c0000000000000000000000000000000000000000606482015260840161043d565b7f00000000000000000000000000000000000000000000000000000000000000006001600160a01b031661063f7f360894a13ba1a3210667c828492db98dca3e2076cc3735a920a3ca505d382bbc546001600160a01b031690565b6001600160a01b0316146106bb5760405162461bcd60e51b815260206004820152602c60248201527f46756e6374696f6e206d7573742062652063616c6c6564207468726f7567682060448201527f6163746976652070726f78790000000000000000000000000000000000000000606482015260840161043d565b6106c48261088e565b6106d0828260016108c7565b5050565b6000306001600160a01b037f000000000000000000000000000000000000000000000000000000000000000016146107745760405162461bcd60e51b815260206004820152603860248201527f555550535570677261646561626c653a206d757374206e6f742062652063616c60448201527f6c6564207468726f7567682064656c656761746563616c6c0000000000000000606482015260840161043d565b507f360894a13ba1a3210667c828492db98dca3e2076cc3735a920a3ca505d382bbc90565b6040517ffdef91060000000000000000000000000000000000000000000000000000000081526001600160a01b0387169063fdef9106906107e69088908890889088908890600401610ede565b602060405180830381865afa158015610803573d6000803e3d6000fd5b505050506040513d601f19601f820116820180604052508101906108279190610f32565b610886576040517f5caaf8930000000000000000000000000000000000000000000000000000000081526001600160a01b038088166004830152808716602483018190526044830152851660648201526084810184905260a40161043d565b505050505050565b60c9547f821b6e3a557148015a918c89e5d092e878a69854a2d1a410635f771bd5a8a3f5906106d0906001600160a01b03163033610387565b7f4910fdfa16fed3260ed0e7147f7cc6da11a60208b5b9406d12a635614ffd91435460ff16156108ff576108fa83610a6c565b505050565b826001600160a01b03166352d1902d6040518163ffffffff1660e01b8152600401602060405180830381865afa925050508015610959575060408051601f3d908101601f1916820190925261095691810190610f54565b60015b6109cb5760405162461bcd60e51b815260206004820152602e60248201527f45524331393637557067726164653a206e657720696d706c656d656e7461746960448201527f6f6e206973206e6f742055555053000000000000000000000000000000000000606482015260840161043d565b7f360894a13ba1a3210667c828492db98dca3e2076cc3735a920a3ca505d382bbc8114610a605760405162461bcd60e51b815260206004820152602960248201527f45524331393637557067726164653a20756e737570706f727465642070726f7860448201527f6961626c65555549440000000000000000000000000000000000000000000000606482015260840161043d565b506108fa838383610b42565b6001600160a01b0381163b610ae95760405162461bcd60e51b815260206004820152602d60248201527f455243313936373a206e657720696d706c656d656e746174696f6e206973206e60448201527f6f74206120636f6e747261637400000000000000000000000000000000000000606482015260840161043d565b7f360894a13ba1a3210667c828492db98dca3e2076cc3735a920a3ca505d382bbc80547fffffffffffffffffffffffff0000000000000000000000000000000000000000166001600160a01b0392909216919091179055565b610b4b83610b6d565b600082511180610b585750805b156108fa57610b678383610bad565b50505050565b610b7681610a6c565b6040516001600160a01b038216907fbc7cd75a20ee27fd9adebab32041f755214dbc6bffa90cc0225b39da2e5c2d3b90600090a250565b60606001600160a01b0383163b610c2c5760405162461bcd60e51b815260206004820152602660248201527f416464726573733a2064656c65676174652063616c6c20746f206e6f6e2d636f60448201527f6e74726163740000000000000000000000000000000000000000000000000000606482015260840161043d565b600080846001600160a01b031684604051610c479190610f99565b600060405180830381855af49150503d8060008114610c82576040519150601f19603f3d011682016040523d82523d6000602084013e610c87565b606091505b5091509150610caf8282604051806060016040528060278152602001610fe960279139610cb8565b95945050505050565b60608315610cc7575081610cf1565b825115610cd75782518084602001fd5b8160405162461bcd60e51b815260040161043d9190610fb5565b9392505050565b600060208284031215610d0a57600080fd5b81357fffffffff0000000000000000000000000000000000000000000000000000000081168114610cf157600080fd5b60008060408385031215610d4d57600080fd5b50508035926020909101359150565b80356001600160a01b0381168114610d7357600080fd5b919050565b600060208284031215610d8a57600080fd5b610cf182610d5c565b6020810160038310610db557634e487b7160e01b600052602160045260246000fd5b91905290565b634e487b7160e01b600052604160045260246000fd5b60008060408385031215610de457600080fd5b610ded83610d5c565b9150602083013567ffffffffffffffff80821115610e0a57600080fd5b818501915085601f830112610e1e57600080fd5b813581811115610e3057610e30610dbb565b604051601f8201601f19908116603f01168101908382118183101715610e5857610e58610dbb565b81604052828152886020848701011115610e7157600080fd5b8260208601602083013760006020848301015280955050505050509250929050565b6000817fffffffffffffffffffffffffffffffffffffffffffffffffffffffffffffffff0483118215151615610ed957634e487b7160e01b600052601160045260246000fd5b500290565b60006001600160a01b03808816835280871660208401525084604083015260806060830152826080830152828460a0840137600060a0848401015260a0601f19601f85011683010190509695505050505050565b600060208284031215610f4457600080fd5b81518015158114610cf157600080fd5b600060208284031215610f6657600080fd5b5051919050565b60005b83811015610f88578181015183820152602001610f70565b83811115610b675750506000910152565b60008251610fab818460208701610f6d565b9190910192915050565b6020815260008251806020840152610fd4816040850160208701610f6d565b601f01601f1916919091016040019291505056fe416464726573733a206c6f772d6c6576656c2064656c65676174652063616c6c206661696c6564a2646970667358221220693e253077da3b637f47ce81ca098bdbf96173da74b8c8b373f1438029423f5d64736f6c634300080a003360a06040523060805234801561001457600080fd5b5060805161140c61004c60003960008181610563015281816105f901528181610701015281816107970152610892015261140c6000f3fe6080604052600436106100dd5760003560e01c806352d1902d1161007f5780639b97d03a116100595780639b97d03a1461021c578063b73fa1e71461023d578063c6888fa114610271578063c9c4bfca1461029157600080fd5b806352d1902d146101da57806361461954146101ef578063985da726146101fe57600080fd5b80631794bb3c116100bb5780631794bb3c146101695780633659cfe61461018b57806341de6830146101ab5780634f1ef286146101c757600080fd5b806301ffc9a7146100e257806306661abd146101175780630cbcae701461013c575b600080fd5b3480156100ee57600080fd5b506101026100fd3660046110a3565b6102c5565b60405190151581526020015b60405180910390f35b34801561012357600080fd5b5061012e61015f5481565b60405190815260200161010e565b34801561014857600080fd5b506101516103aa565b6040516001600160a01b03909116815260200161010e565b34801561017557600080fd5b506101896101843660046110fa565b6103e2565b005b34801561019757600080fd5b506101896101a636600461113b565b610558565b3480156101b757600080fd5b50600060405161010e9190611158565b6101896101d53660046111c8565b6106f6565b3480156101e657600080fd5b5061012e610885565b3480156101fb57600080fd5b50005b34801561020a57600080fd5b5060c9546001600160a01b0316610151565b34801561022857600080fd5b5061016054610151906001600160a01b031681565b34801561024957600080fd5b5061012e7f293ab483515bb2dc32ac9b2dfb9c39ee4ea5571530c34de9864c3e5fa9ce787d81565b34801561027d57600080fd5b5061012e61028c36600461128c565b61094a565b34801561029d57600080fd5b5061012e7f821b6e3a557148015a918c89e5d092e878a69854a2d1a410635f771bd5a8a3f581565b60007fffffffff0000000000000000000000000000000000000000000000000000000082167f41de683000000000000000000000000000000000000000000000000000000000148061035857507fffffffff0000000000000000000000000000000000000000000000000000000082167f52d1902d00000000000000000000000000000000000000000000000000000000145b806103a457507f01ffc9a7000000000000000000000000000000000000000000000000000000007fffffffff000000000000000000000000000000000000000000000000000000008316145b92915050565b60006103dd7f360894a13ba1a3210667c828492db98dca3e2076cc3735a920a3ca505d382bbc546001600160a01b031690565b905090565b600054610100900460ff16158080156104025750600054600160ff909116105b8061041c5750303b15801561041c575060005460ff166001145b6104935760405162461bcd60e51b815260206004820152602e60248201527f496e697469616c697a61626c653a20636f6e747261637420697320616c72656160448201527f647920696e697469616c697a656400000000000000000000000000000000000060648201526084015b60405180910390fd5b600080547fffffffffffffffffffffffffffffffffffffffffffffffffffffffffffffff0016600117905580156104d4576000805461ff0019166101001790555b6104dd84610a2a565b61015f829055610160805473ffffffffffffffffffffffffffffffffffffffff19166001600160a01b0385161790558015610552576000805461ff0019169055604051600181527f7f26b83ff96e1f2b6a682f133852f6798a09c465da95921460cefb38474024989060200160405180910390a15b50505050565b306001600160a01b037f00000000000000000000000000000000000000000000000000000000000000001614156105f75760405162461bcd60e51b815260206004820152602c60248201527f46756e6374696f6e206d7573742062652063616c6c6564207468726f7567682060448201527f64656c656761746563616c6c0000000000000000000000000000000000000000606482015260840161048a565b7f00000000000000000000000000000000000000000000000000000000000000006001600160a01b03166106527f360894a13ba1a3210667c828492db98dca3e2076cc3735a920a3ca505d382bbc546001600160a01b031690565b6001600160a01b0316146106ce5760405162461bcd60e51b815260206004820152602c60248201527f46756e6374696f6e206d7573742062652063616c6c6564207468726f7567682060448201527f6163746976652070726f78790000000000000000000000000000000000000000606482015260840161048a565b6106d781610ab0565b604080516000808252602082019092526106f391839190610ae9565b50565b306001600160a01b037f00000000000000000000000000000000000000000000000000000000000000001614156107955760405162461bcd60e51b815260206004820152602c60248201527f46756e6374696f6e206d7573742062652063616c6c6564207468726f7567682060448201527f64656c656761746563616c6c0000000000000000000000000000000000000000606482015260840161048a565b7f00000000000000000000000000000000000000000000000000000000000000006001600160a01b03166107f07f360894a13ba1a3210667c828492db98dca3e2076cc3735a920a3ca505d382bbc546001600160a01b031690565b6001600160a01b03161461086c5760405162461bcd60e51b815260206004820152602c60248201527f46756e6374696f6e206d7573742062652063616c6c6564207468726f7567682060448201527f6163746976652070726f78790000000000000000000000000000000000000000606482015260840161048a565b61087582610ab0565b61088182826001610ae9565b5050565b6000306001600160a01b037f000000000000000000000000000000000000000000000000000000000000000016146109255760405162461bcd60e51b815260206004820152603860248201527f555550535570677261646561626c653a206d757374206e6f742062652063616c60448201527f6c6564207468726f7567682064656c656761746563616c6c0000000000000000606482015260840161048a565b507f360894a13ba1a3210667c828492db98dca3e2076cc3735a920a3ca505d382bbc90565b60c9546000907f293ab483515bb2dc32ac9b2dfb9c39ee4ea5571530c34de9864c3e5fa9ce787d9061098b906001600160a01b031630335b84600036610c8e565b6101605461015f546040517f165c4a160000000000000000000000000000000000000000000000000000000081526001600160a01b039092169163165c4a16916109e2918790600401918252602082015260400190565b602060405180830381865afa1580156109ff573d6000803e3d6000fd5b505050506040513d601f19601f82011682018060405250810190610a2391906112a5565b9392505050565b600054610100900460ff16610aa75760405162461bcd60e51b815260206004820152602b60248201527f496e697469616c697a61626c653a20636f6e7472616374206973206e6f74206960448201527f6e697469616c697a696e67000000000000000000000000000000000000000000606482015260840161048a565b6106f381610d83565b60c9547f821b6e3a557148015a918c89e5d092e878a69854a2d1a410635f771bd5a8a3f590610881906001600160a01b03163033610982565b7f4910fdfa16fed3260ed0e7147f7cc6da11a60208b5b9406d12a635614ffd91435460ff1615610b2157610b1c83610e2f565b505050565b826001600160a01b03166352d1902d6040518163ffffffff1660e01b8152600401602060405180830381865afa925050508015610b7b575060408051601f3d908101601f19168201909252610b78918101906112a5565b60015b610bed5760405162461bcd60e51b815260206004820152602e60248201527f45524331393637557067726164653a206e657720696d706c656d656e7461746960448201527f6f6e206973206e6f742055555053000000000000000000000000000000000000606482015260840161048a565b7f360894a13ba1a3210667c828492db98dca3e2076cc3735a920a3ca505d382bbc8114610c825760405162461bcd60e51b815260206004820152602960248201527f45524331393637557067726164653a20756e737570706f727465642070726f7860448201527f6961626c65555549440000000000000000000000000000000000000000000000606482015260840161048a565b50610b1c838383610efa565b6040517ffdef91060000000000000000000000000000000000000000000000000000000081526001600160a01b0387169063fdef910690610cdb90889088908890889088906004016112be565b602060405180830381865afa158015610cf8573d6000803e3d6000fd5b505050506040513d601f19601f82011682018060405250810190610d1c9190611312565b610d7b576040517f5caaf8930000000000000000000000000000000000000000000000000000000081526001600160a01b038088166004830152808716602483018190526044830152851660648201526084810184905260a40161048a565b505050505050565b600054610100900460ff16610e005760405162461bcd60e51b815260206004820152602b60248201527f496e697469616c697a61626c653a20636f6e7472616374206973206e6f74206960448201527f6e697469616c697a696e67000000000000000000000000000000000000000000606482015260840161048a565b60c9805473ffffffffffffffffffffffffffffffffffffffff19166001600160a01b0392909216919091179055565b6001600160a01b0381163b610eac5760405162461bcd60e51b815260206004820152602d60248201527f455243313936373a206e657720696d706c656d656e746174696f6e206973206e60448201527f6f74206120636f6e747261637400000000000000000000000000000000000000606482015260840161048a565b7f360894a13ba1a3210667c828492db98dca3e2076cc3735a920a3ca505d382bbc805473ffffffffffffffffffffffffffffffffffffffff19166001600160a01b0392909216919091179055565b610f0383610f1f565b600082511180610f105750805b15610b1c576105528383610f5f565b610f2881610e2f565b6040516001600160a01b038216907fbc7cd75a20ee27fd9adebab32041f755214dbc6bffa90cc0225b39da2e5c2d3b90600090a250565b60606001600160a01b0383163b610fde5760405162461bcd60e51b815260206004820152602660248201527f416464726573733a2064656c65676174652063616c6c20746f206e6f6e2d636f60448201527f6e74726163740000000000000000000000000000000000000000000000000000606482015260840161048a565b600080846001600160a01b031684604051610ff99190611360565b600060405180830381855af49150503d8060008114611034576040519150601f19603f3d011682016040523d82523d6000602084013e611039565b606091505b509150915061106182826040518060600160405280602781526020016113b06027913961106a565b95945050505050565b60608315611079575081610a23565b8251156110895782518084602001fd5b8160405162461bcd60e51b815260040161048a919061137c565b6000602082840312156110b557600080fd5b81357fffffffff0000000000000000000000000000000000000000000000000000000081168114610a2357600080fd5b6001600160a01b03811681146106f357600080fd5b60008060006060848603121561110f57600080fd5b833561111a816110e5565b9250602084013561112a816110e5565b929592945050506040919091013590565b60006020828403121561114d57600080fd5b8135610a23816110e5565b6020810160038310611193577f4e487b7100000000000000000000000000000000000000000000000000000000600052602160045260246000fd5b91905290565b7f4e487b7100000000000000000000000000000000000000000000000000000000600052604160045260246000fd5b600080604083850312156111db57600080fd5b82356111e6816110e5565b9150602083013567ffffffffffffffff8082111561120357600080fd5b818501915085601f83011261121757600080fd5b81358181111561122957611229611199565b604051601f8201601f19908116603f0116810190838211818310171561125157611251611199565b8160405282815288602084870101111561126a57600080fd5b8260208601602083013760006020848301015280955050505050509250929050565b60006020828403121561129e57600080fd5b5035919050565b6000602082840312156112b757600080fd5b5051919050565b60006001600160a01b03808816835280871660208401525084604083015260806060830152826080830152828460a0840137600060a0848401015260a0601f19601f85011683010190509695505050505050565b60006020828403121561132457600080fd5b81518015158114610a2357600080fd5b60005b8381101561134f578181015183820152602001611337565b838111156105525750506000910152565b60008251611372818460208701611334565b9190910192915050565b602081526000825180602084015261139b816040850160208701611334565b601f01601f1916919091016040019291505056fe416464726573733a206c6f772d6c6576656c2064656c65676174652063616c6c206661696c6564a26469706673582212208aa07b3065df8d94fde633b52e5de095efb421c0b23682050ceea2592e6a092764736f6c634300080a0033",
  "devdoc": {
    "author": "Aragon Association - 2022",
    "kind": "dev",
    "methods": {
      "getImplementationAddress()": {
        "details": "The implementation can be instantiated via the `new` keyword, cloned via the minimal clones pattern (see [ERC-1167](https://eips.ethereum.org/EIPS/eip-1167)), or proxied via the UUPS pattern (see [ERC-1822](https://eips.ethereum.org/EIPS/eip-1822)).",
        "returns": {
          "_0": "address The address of the plugin implementation contract."
        }
      },
      "prepareInstallation(address,bytes)": {
        "params": {
          "_dao": "The address of the installing DAO.",
          "_data": "The `bytes` encoded data containing the input parameters for the installation as specified in the `prepareInstallationDataABI()` function."
        },
        "returns": {
          "helpers": "The address array of all helpers (contracts or EOAs) associated with the plugin after the installation.",
          "permissions": "The array of multi-targeted permission operations to be applied by the `PluginSetupProcessor` to the installing DAO.",
          "plugin": "The address of the `Plugin` contract being prepared for installation."
        }
      },
      "prepareInstallationDataABI()": {
        "returns": {
          "_0": "The ABI in string format."
        }
      },
      "prepareUninstallation(address,address,address[],bytes)": {
        "details": "The array of `_currentHelpers` has to be specified in the same order as they were returned from previous setups preparation steps (the latest `prepareInstallation` or `prepareUpdate` step that has happend) on which this update is prepared for.",
        "params": {
          "_currentHelpers": "The address array of all current helpers (contracts or EOAs) associated with the plugin to update from.",
          "_dao": "The address of the uninstalling DAO.",
          "_data": "The `bytes` encoded data containing the input parameters for the uninstalltion as specified in the `prepareUninstallationDataABI()` function.",
          "_plugin": "The address of the `Plugin` contract to update from."
        },
        "returns": {
          "permissions": "The array of multi-targeted permission operations to be applied by the `PluginSetupProcessor` to the uninstalling DAO."
        }
      },
      "prepareUninstallationDataABI()": {
        "returns": {
          "_0": "The ABI in string format."
        }
      },
      "prepareUpdate(address,address,address[],uint16[3],bytes)": {
        "details": "The array of `_currentHelpers` has to be specified in the same order as they were returned from previous setups preparation steps (the latest `prepareInstallation` or `prepareUpdate` step that has happend) on which this update is prepared for.",
        "params": {
          "_currentHelpers": "The address array of all current helpers (contracts or EOAs) associated with the plugin to update from.",
          "_dao": "The address of the updating DAO.",
          "_data": "The `bytes` encoded data containing the input parameters for the update as specified in the `prepareUpdateDataABI()` function.",
          "_oldVersion": "The semantic version of the plugin to update from.",
          "_plugin": "The address of the `Plugin` contract to update from."
        },
        "returns": {
          "initData": "The initialization data to be passed to upgradeable contracts when the update is applied in the `PluginSetupProcessor`.",
          "permissions": "The array of multi-targeted permission operations to be applied by the `PluginSetupProcessor` to the updating DAO.",
          "updatedHelpers": "The address array of helpers (contracts or EOAs) associated with the plugin after the update."
        }
      },
      "prepareUpdateDataABI()": {
        "details": "The empty implemention is provided here so that this doesn't need to be overriden and implemented. This is relevant, for example, for the initial version of a plugin for which no update exists.",
        "returns": {
          "_0": "The ABI in string format."
        }
      },
      "supportsInterface(bytes4)": {
        "params": {
          "interfaceId": "The ID of the interace."
        },
        "returns": {
          "_0": "bool Returns true if the interface is supported."
        }
      }
    },
    "title": "CounterV1PluginSetup",
    "version": 1
  },
  "userdoc": {
    "kind": "user",
    "methods": {
      "getImplementationAddress()": {
        "notice": "Returns the plugin's base implementation."
      },
      "prepareInstallation(address,bytes)": {
        "notice": "Prepares the installation of a plugin."
      },
      "prepareInstallationDataABI()": {
        "notice": "The ABI required to decode the `bytes` data in `prepareInstallation()`."
      },
      "prepareUninstallation(address,address,address[],bytes)": {
        "notice": "Prepares the uninstallation of a plugin."
      },
      "prepareUninstallationDataABI()": {
        "notice": "The ABI required to decode the `bytes` data in `prepareUninstallation()`."
      },
      "prepareUpdate(address,address,address[],uint16[3],bytes)": {
        "notice": "Prepares the update of a plugin."
      },
      "prepareUpdateDataABI()": {
        "notice": "The ABI required to decode the `bytes` data in `prepareUpdate()`."
      },
      "supportsInterface(bytes4)": {
        "notice": "Checks if this or the parent contract supports an interface by its ID."
      }
    },
    "notice": "The setup contract of the `CounterV1` plugin.",
    "version": 1
  },
  "storageLayout": {
    "storage": [
      {
        "astId": 2454,
        "contract": "contracts/counter/CounterV1PluginSetup.sol:CounterV1PluginSetup",
        "label": "multiplyHelperBase",
        "offset": 0,
        "slot": "0",
        "type": "t_contract(MultiplyHelper)2823"
      },
      {
        "astId": 2457,
        "contract": "contracts/counter/CounterV1PluginSetup.sol:CounterV1PluginSetup",
        "label": "counterBase",
        "offset": 0,
        "slot": "1",
        "type": "t_contract(CounterV1)2429"
      }
    ],
    "types": {
      "t_contract(CounterV1)2429": {
        "encoding": "inplace",
        "label": "contract CounterV1",
        "numberOfBytes": "20"
      },
      "t_contract(MultiplyHelper)2823": {
        "encoding": "inplace",
        "label": "contract MultiplyHelper",
        "numberOfBytes": "20"
      }
    }
  }
}